:020000040800F2
:10000000F07D012479030008414800087946000882
:100010003948000889040008698E000800000000C3
:100020000000000000000000000000002150000857
:10003000D105000800000000794C0008B950000804
:100040009703000897030008970300089703000828
:100050009703000897030008970300089703000818
:100060009703000897030008970300089703000808
:1000700097030008970300089703000897030008F8
:1000800097030008970300089703000897030008E8
:1000900097030008970300089703000897030008D8
:1000A00097030008970300089703000897030008C8
:1000B00097030008970300089703000897030008B8
:1000C00097030008970300089703000897030008A8
:1000D0009703000897030008970300089703000898
:1000E000970300089703000800000000970300082A
:1000F0009703000897030008970300089703000878
:100100009703000897030008970300089703000867
:100110009703000897030008970300089703000857
:100120009703000897030008970300089703000847
:100130009703000897030008970300089703000837
:1001400000000000000000000000000000000000AF
:100150009703000897030008970300089703000817
:100160009703000897030008C9480008B948000829
:1001700097030008D9480008970300089703000870
:1001800097030008970300089703000897030008E7
:1001900097030008970300089703000897030008D7
:1001A00097030008970300089703000897030008C7
:1001B00097030008970300089703000897030008B7
:1001C00097030008970300089703000897030008A7
:1001D0009703000897030008970300089703000897
:1001E0009703000897030008970300089703000887
:1001F0009703000897030008970300089703000877
:100200009703000897030008970300089703000866
:100210009703000897030008970300089703000856
:1002200097030008970300089703000800000000E8
:1002300097030008970300080000000097030008D8
:100240009703000897030008970300089703000826
:100250009703000897030008970300089703000816
:100260009703000897030008970300089703000806
:100270009703000897030008970300080000000098
:100280009703000897030008970300080000000088
:10029000000000009703000800F002F800F05CF88E
:1002A0000AA090E8000C82448344AAF10107DA45D1
:1002B00001D100F051F8AFF2090EBAE80F0013F0C7
:1002C000010F18BFFB1A43F001031847508D0000BF
:1002D000708D00000A444FF0000C10F8013B13F041
:1002E000070408BF10F8014B1D1108BF10F8015B8F
:1002F000641E05D010F8016B641E01F8016BF9D182
:1003000013F0080F1EBF10F8014BAD1C0C1B09D1D8
:100310006D1E58BF01F801CBFAD505E014F8016B4A
:1003200001F8016B6D1EF9D59142D6D370470000DC
:100330000023002400250026103A28BF78C1FBD8EE
:10034000520728BF30C148BF0B6070471FB508F087
:1003500031FE1FBD10B510BD00F05CF81146FFF76F
:10036000F5FF08F015FE00F07AF803B4FFF7F2FF8E
:1003700003BC00F081F800000A4880470A48804723
:100380000A480047FEE7FEE7FEE7FEE7FEE7FEE776
:10039000FEE7FEE7FEE7FEE705480649064A074B8B
:1003A00070470000E9050008B151000899020008F3
:1003B000F0650124F07D0124F06D0124F06D01242D
:1003C0004FF0000200B5134694469646203922BFEE
:1003D000A0E80C50A0E80C50B1F12001BFF4F7AF39
:1003E000090728BFA0E80C5048BF0CC05DF804EB1B
:1003F000890028BF40F8042B08BF704748BF20F889
:10040000022B11F0804F18BF00F8012B7047704786
:1004100070477047754600F02BF8AE4605006946F8
:10042000534620F00700854618B020B5FFF7B4FF0B
:10043000BDE820404FF000064FF000074FF00008E5
:100440004FF0000BAC46ACE8C009ACE8C009ACE822
:10045000C009ACE8C00921F007018D46704710B50E
:100460000446AFF300802046BDE81040FFF77DBF93
:1004700000487047A001002401491820ABBEFEE7E8
:100480002600020070470000FFE7FEE700000000C2
:1004900084B08DF80F000291ADF806209DF80F0092
:1004A0000146009123281DD80099DFE801F01213BE
:1004B0001415161B1B1B1B1B1B1B1B1B1B1B1B1B9E
:1004C0001B1B1B1B1B1B1B1B1B1B1B1B1B1B171883
:1004D000191A08E007E006E005E004E003E002E0A6
:1004E00001E000E0FFE7002004B0704700000000DA
:1004F000002070470000000080B582B041F2246007
:10050000C2F20040009040F62461C2F20041002295
:10051000019205F0A5FA009840F22461C2F2004170
:1005200005F07EFA019802B080BD000000000000D6
:1005300080B584B003900291039941F22460C2F225
:100540000040019005F06CFA019805F00DFA0020CA
:1005500004B080BD0000000083B0029001918DF8CE
:10056000032000208DF802009DF9020003B07047BF
:1005700080B586B00490ADF80E1000208DF80D0007
:1005800041F22460C2F20040D0F8BC02029002980E
:10059000D0F8140220B1FFE701208DF8170013E016
:1005A0000499BDF80E2041F22460C2F2004001908F
:1005B00005F056FA019805F05FFB8DF80D009DF8E7
:1005C0000D008DF81700FFE79DF8170006B080BDFD
:1005D000704700000000000081B0EFF3108072B699
:1005E0000090FFE7FEE7000044F60C01C5F60201AB
:1005F000086840F002000860FFE744F60400C5F612
:10060000020000688004002801D4FFE7F5E7704786
:1006100080B584B04EF60000C1F6F170006803901A
:100620004EF60400C1F6F170006802904EF6080024
:10063000C1F6F17000680190019903980844039095
:10064000039888B1FFE7039840F2C401C2F2004169
:1006500000910231082204F013F800990298123137
:10066000042204F00DF8FFE704B080BD0000000094
:1006700080B584B0039000F00BFA029003980190CB
:100680000198013048B1FFE740F29610C2F20040F5
:100690000178019808440190FFE7FFE700F0F8F9BE
:1006A0000299401A0199884201D2FFE7F6E704B0A7
:1006B00080BD00000000000090B00F900E9100205F
:1006C0000D908020C5F600000A90FFE70E980068A4
:1006D0000D99C840002800F0CF81FFE70E98006810
:1006E0000D9A0121914008400C900C98002800F0D0
:1006F000BF81FFE70E98406800F00300012807D093
:10070000FFE70E98406800F0030002282FD1FFE7B2
:100710000F9880680B900D984100032000FA01F1BA
:100720000B9888430B900E98C0680D99490000FA09
:1007300001F10B9808430B900B980F9988600F9864
:1007400040680B900D99012000FA01F10B98884345
:100750000B900E984068C0F300100D9900FA01F15B
:100760000B9808430B900B980F994860FFE70E9881
:10077000406800F00300032818D0FFE70F98C06816
:100780000B900D984100032000FA01F10B9888436B
:100790000B900E9880680D99490000FA01F10B98B2
:1007A00008430B900B980F99C860FFE70E984068BC
:1007B00000F00300022826D1FFE70F980D996FF093
:1007C000030202EA51010844006A0B900D9800F000
:1007D000070081000F2000FA01F10B9888430B906D
:1007E0000E9800690D9901F00701890000FA01F1E6
:1007F0000B9808430B900B980F990D9B02EA53023C
:1008000011440862FFE70F9800680B900D984100B3
:10081000032000FA01F10B9888430B900E98406872
:1008200000F003000D99490000FA01F10B9808430C
:100830000B900B980F9908600E988079800700281C
:1008400000F01581FFE7FFE744F2F440C5F602002F
:10085000016841F002010160006800F002000990A7
:100860000998FFE70D9820F0030040F20841C5F613
:10087000000140580B900D9800F0030081000F20FC
:1008800000FA01F10B9888430B900F980021C5F6F0
:100890000201884203D1FFE7002008907AE00F9818
:1008A00040F20041C5F60201884203D1FFE7012072
:1008B00007906CE00F9840F60001C5F602018842EF
:1008C00003D1FFE7022006905EE00F9840F600415A
:1008D000C5F60201884203D1FFE70320059050E0EE
:1008E0000F9841F20001C5F60201884203D1FFE7EB
:1008F0000420049042E00F9841F20041C5F6020145
:10090000884203D1FFE70520039034E00F9841F6B9
:100910000001C5F60201884203D1FFE706200290DC
:1009200026E00F9841F60041C5F60201884203D146
:10093000FFE70720019018E00F9842F20001C5F68A
:100940000201884203D1FFE7082000900AE00F99D6
:1009500042F20042C5F602020A20914208BF092075
:100960000090FFE700980190FFE701980290FFE7F1
:1009700002980390FFE703980490FFE7049805901E
:10098000FFE705980690FFE706980790FFE70798AE
:100990000890FFE708980D9901F00301890000FA1B
:1009A00001F10B9808430B900B980D9921F003016E
:1009B00040F20842C5F6000288504FF0B04000688F
:1009C0000B900C990B9888430B900E988079C00679
:1009D000002805D5FFE70C990B9808430B90FFE71B
:1009E0000B984FF0B04108600420C5F60000006885
:1009F0000B900C990B9888430B900E988079800689
:100A0000002805D5FFE70C990B9808430B90FFE7EA
:100A10000B980421C5F6000108600A9840680B9005
:100A20000C990B9888430B900E98807980070028CA
:100A300005D5FFE70C990B9808430B90FFE70B983F
:100A40000A9948600A9800680B900C990B988843A3
:100A50000B900E988079C00728B1FFE70C990B988E
:100A600008430B90FFE70B980A990860FFE7FFE740
:100A70000D9801300D9029E610B07047000000007D
:100A800041F20000C5F600400068000C704700000D
:100A900046F2E850C2F201400068704700000000D2
:100AA00040F29610C2F20040027846F2E851C2F2DB
:100AB0000141086810440860704700000000000011
:100AC00080B582B0032000F023F902F099FE44F2D1
:100AD0001842C5F602021168C1F3032348F6CE712D
:100AE000C0F60001CB5C03F01F03D84000900098D3
:100AF000126802F00F02895C01F01F01C84040F249
:100B00002C01C2F200410860009840F22801C2F2B4
:100B1000004108600F2000F013F820B1FFE701202A
:100B20008DF8070005E000F0BBF800208DF8070005
:100B3000FFE79DF8070002B080BD00000000000044
:100B400080B582B0009040F29610C2F2004000786A
:100B500020B9FFE701208DF8070030E040F22800BF
:100B6000C2F20040006840F29611C2F200410A78D9
:100B70004FF47A71B1FBF2F1B0FBF1F003F074FDC8
:100B800020B1FFE701208DF8070018E000980F283A
:100B90000DD8FFE700994FF0FF30002200F0A0F8D9
:100BA000009840F29811C2F20041086003E0012071
:100BB0008DF8070003E000208DF80700FFE79DF89F
:100BC000070002B080BD000010B581B00090009811
:100BD00040784EF69851CEF2000108604EF6A051D2
:100BE000CEF20001086820F001000860009840681B
:100BF0004EF69C52CEF200021060DDF800E09EF846
:100C00000C0000079EF80B2040EA02609EF80020CE
:100C10009EF808309EF809C09EF80A4040EAC44099
:100C20009EF80D4040EA84409EF80E4040EA444061
:100C30009EF80FE040EA0E4040EA0C2040EA4300F4
:100C40001043086001B010BDBFF35F8F4EF6245112
:100C5000CEF20001086820F4803008604EF694510E
:100C6000CEF2000100200860704700000000000084
:100C700081B00090009840F001004EF69451CEF201
:100C8000000108604EF62451CEF20001086840F4DD
:100C900080300860BFF34F8FBFF36F8F01B0704794
:100CA00081B0FFE744F2F440C5F60200016841F06C
:100CB00002010160006800F0020000900098FFE768
:100CC00001B070470000000080B582B0ADF80600AA
:100CD000BDF9060008F0F8F802B080BD0000000081
:100CE00080B586B0ADF816000491039208F004F9BF
:100CF0000290BDF91600019002980499039A03F03E
:100D0000A3FD0146019808F0FFF806B080BD000081
:100D100080B582B00190019808F01AF902B080BD48
:100D200082B0019001980068009001990120C1F8FB
:100D3000D8040199002081F8CC04009A916941F00F
:100D400000619161009A516D0323C1F200031943C0
:100D5000516502B07047000082B001908DF8031019
:100D600002B070470000000082B00190ADF80210A0
:100D7000BDF80200019909684862002002B070477E
:100D800084B003908DF80B10ADF80820039800682C
:100D9000406A00909DF80B0048B9FFE7BDF80810C5
:100DA000009840EA014003990968886233E003989B
:100DB0000068816A009800EB1140009000208DF8D7
:100DC0000700FFE79DF807009DF80B1001398842E6
:100DD00013D2FFE7039800689DF8071000EB81002D
:100DE000D0F80411009800EB11400090FFE79DF847
:100DF000070001308DF80700E4E7BDF808100098FF
:100E000040EA0140039909689DF80B2001EB82013B
:100E1000C1F80001FFE7002004B0704700000000A7
:100E200080B582B001900198D0F8E00405F004FE8E
:100E300002B080BD0000000080B582B001908DF846
:100E40000310019AD2F8E0049DF8031001EBC103EE
:100E500002EB8302126A05F04BFC02B080BD000079
:100E600080B582B001908DF80310019AD2F8E004A9
:100E70009DF8031001EBC10302EB8302D2F860225C
:100E800005F0FEFC02B080BD80B582B001900198F3
:100E9000D0F8E00405F0D8FD02B080BD00000000ED
:100EA00080B584B003908DF80B109DF80B00000600
:100EB00000280CD5FFE703989DF80B1001F00F01F7
:100EC00001EBC10100EB8100143001900CE00398AC
:100ED0009DF80B1001F00F0101EBC10100EB810047
:100EE00000F515700190FFE703980068019907F07D
:100EF000DBFB8DF80A009DF80A0004B080BD0000FD
:100F000080B584B002908DF807109DF807000006A8
:100F100000280FD5FFE702989DF8071001F00F0198
:100F200001EBC10100EB8100143000900099012019
:100F300048700FE002989DF8071001F00F0101EBD7
:100F4000C10100EB810000F51570009000990020B0
:100F50004870FFE79DF8070000F00F000099087047
:100F6000FFE7029890F89404012804D1FFE70220DB
:100F70008DF80F0014E00299012081F89404FFE736
:100F8000FFE702980068009906F07EFEFFE70299ED
:100F9000002081F89404FFE700208DF80F00FFE7A0
:100FA0009DF80F0004B080BD80B584B002908DF82C
:100FB00007109DF8070000F00F0002990979884298
:100FC00004D9FFE701208DF80F004DE09DF80700E0
:100FD000000600280FD5FFE702989DF8071001F0E2
:100FE0000F0101EBC10100EB81001430009000996A
:100FF000012048700FE002989DF8071001F00F01E2
:1010000001EBC10100EB810000F515700090009923
:1010100000204870FFE70099002088709DF80700C5
:1010200000F00F0000990870FFE7029890F8940410
:10103000012804D1FFE702208DF80F0014E0029987
:10104000012081F89404FFE7FFE702980068009907
:1010500007F08AF8FFE70299002081F89404FFE77F
:1010600000208DF80F00FFE79DF80F0004B080BD51
:1010700082B001908DF8031001989DF8031001F0E3
:101080000F0101EBC10100EB8100D0F8680202B052
:10109000704700000000000080B586B004908DF815
:1010A0000F10ADF80C208DF80B3000208DF80A00E1
:1010B0009DF80F00000600280FD5FFE704989DF863
:1010C0000F1001F00F0101EBC10100EB81001430A2
:1010D00001900199012048700FE004989DF80F10CD
:1010E00001F00F0101EBC10100EB810000F515706B
:1010F0000190019900204870FFE79DF80F0000F073
:101100000F0001990870BDF80C006FF3DF20019902
:1011100088609DF80B00019908710198407820B112
:10112000FFE7019908784883FFE79DF80B00022844
:1011300004D1FFE7019900204871FFE7FFE7049819
:1011400090F89404012804D1FFE702208DF81700DD
:1011500015E00499012081F89404FFE7FFE7049863
:101160000068019906F054FCFFE70499002081F81B
:101170009404FFE79DF80A008DF81700FFE79DF83B
:10118000170006B080BD000080B586B005908DF8D0
:1011900013100392029305989DF8131001F00F01AC
:1011A00001EBC10100EB810000F51570019003987F
:1011B0000199C8600298019908610199002048616D
:1011C000019948709DF8130000F00F000199087014
:1011D00005988079012804D1FFE703980199C86137
:1011E000FFE7059A10680199927907F061F80020ED
:1011F00006B080BD0000000080B584B002908DF87C
:1012000007109DF8070000F00F0002990979884245
:1012100004D9FFE701208DF80F0058E09DF8070082
:10122000000600280FD5FFE702989DF8071001F08F
:101230000F0101EBC10100EB810014300090009917
:10124000012048700DE002989DF8071001EBC101E4
:1012500000EB810000F515700090009900204870A7
:10126000FFE70099012088709DF8070000F00F004B
:1012700000990870FFE7029890F89404012804D1BF
:10128000FFE702208DF80F0021E00299012081F88C
:101290009404FFE7FFE702980068009906F0B4FFA6
:1012A0009DF80700000740B9FFE7029A106891799E
:1012B00002F29C4206F008FFFFE7FFE702990020D8
:1012C00081F89404FFE700208DF80F00FFE79DF8F8
:1012D0000F0004B080BD000080B586B005908DF889
:1012E00013100392029305989DF8131001F00F015B
:1012F00001EBC10100EB81001430019003980199CA
:10130000C86002980199086101990020486101991B
:10131000012048709DF8130000F00F00019908703B
:1013200005988079012804D1FFE703980199C861E5
:10133000FFE7059A10680199927906F0B9FF00203D
:1013400006B080BD0000000080B58CB00B900B98FB
:1013500000680A900A9809900B98006807F0E4FA70
:10136000002840F03484FFE70B98006807F04CFB3E
:1013700010B9FFE700F02BBC0998D0F80808C0F3BB
:101380000D200B99C1F8D4040B98006807F03CFBC2
:101390008007002807D5FFE70B980168486900F02F
:1013A00002004861FFE70B98006807F02DFBC006BC
:1013B000002862D5FFE70B980168886920F01000CB
:1013C00088610A98006A02900B98029901F00F0157
:1013D00001EBC10100EB810000F515700890029847
:1013E00000F4F0110220B0EB514F23D1FFE7BDF81C
:1013F000080047F6F07108421BD0FFE70A980899E9
:10140000C968029AC2F30A1207F00EFB029847F667
:10141000F07100EA0103089AD06800EB1310D06065
:10142000029800EA01020899486900EB121048612D
:10143000FFE71BE0029800F4F0110620B0EB514FDB
:1014400012D1FFE70A980B9901F29C41082207F09C
:10145000EBFA029847F6F07100EA01020899486930
:1014600000EB1210486100E0FFE7FFE70B9801680E
:10147000886940F010008861FFE70B98006807F06A
:10148000C3FA0003002840F1A680FFE70020049083
:101490000B98006807F064FA0690FFE706980028AA
:1014A00000F09880FFE79DF81800C007002800F0C2
:1014B0008A80FFE70B9800689DF8101007F08CFAFF
:1014C00005909DF81400C00760B1FFE709980499E2
:1014D00000EB41110120C1F8080B0B98049903F0AF
:1014E0004BFAFFE79DF81400000700280CD5FFE732
:1014F0000998049900EB41110820C1F8080B0B98DA
:10150000049903F0F1F9FFE79DF81400C0060028E4
:1015100008D5FFE70998049900EB41111020C1F8A4
:10152000080BFFE79DF81400800700282DD5FFE782
:101530000A9840690006002808D5FFE70999D1F804
:10154000040840F48060C1F80408FFE70B98049990
:1015500001EBC10100EB810000F5157008900898BF
:10156000C078012809D1FFE708990020C8700B98BE
:101570009DF8101000F040FBFFE70998049900EB7C
:1015800041110220C1F8080BFFE79DF81400800606
:10159000002808D5FFE70998049900EB41112020A5
:1015A000C1F8080BFFE79DF815008006002809D553
:1015B000FFE70998049900EB41114FF40050C1F87E
:1015C000080BFFE7FFE704980130049006984008F5
:1015D000069063E7FFE70B98006807F015FA4003F1
:1015E000002840F1C680FFE70B98006807F0A4F9D7
:1015F000069000200490FFE70698002800F0B880CD
:10160000FFE79DF81800C007002800F0AA80FFE758
:101610000B9800689DF8101007F0B6F905909DF83A
:101620001400C00700283ED0FFE7049800F00F0127
:10163000012000FA01F10391039B099AD2F83418B2
:101640009943C2F834180999049A01EB4211C1F880
:1016500008090B98807901281FD1FFE70B9804999E
:1016600001EBC10100EB8101CA69086A10440862FC
:10167000049888B9FFE70B98049901EBC10100EBCE
:101680008100406A40B9FFE70B99086801F29C426B
:10169000012106F019FDFFE7FFE70B989DF81010F8
:1016A000FFF7CAFBFFE79DF814000007002808D5E4
:1016B000FFE70998049900EB41110820C1F80809D7
:1016C000FFE79DF81400C006002808D5FFE7099839
:1016D000049900EB41111020C1F80809FFE79DF8BB
:1016E00014004006002808D5FFE70998049900EB8C
:1016F00041114020C1F80809FFE79DF81400800758
:10170000002822D5FFE70A98049907F0A5F80B985E
:10171000049901EBC10100EB810014300890089896
:10172000C078012809D1FFE708990020C8700B98FC
:101730009DF8101000F050FAFFE70998049900EBAB
:1017400041110220C1F80809FFE79DF814000006C6
:10175000002805D5FFE70B98049903F0F1F9FFE79E
:10176000FFE704980130049006984008069043E78C
:10177000FFE70B98006807F047F9C00F00B3FFE7D9
:101780000999D1F8040820F00100C1F804080B9869
:1017900090F8CC04012808D1FFE70B98002180F8CD
:1017A000CC140B98FFF7D8FA03E00B9800F04CFC30
:1017B000FFE70B980168486900F000404861FFE7C7
:1017C0000B98006807F020F90005002811D5FFE705
:1017D0000998D0F80808C00720B1FFE70B9800F07F
:1017E000C7FCFFE70B980168486900F40060486196
:1017F000FFE70B98006807F007F90001002820D5E3
:10180000FFE70B980168486900F0006048610B9899
:1018100090F8CC0480B9FFE70B98012180F8CC1434
:101820000B980068406DC0F383000B9AC2F8D00497
:101830000B98FFF791FA03E00B9800F099FCFFE793
:10184000FFE70B98006807F0DFF8C004002840F1BC
:101850008680FFE70999D1F8040820F00100C1F85B
:1018600004080B980068102106F0F6FF002007908E
:10187000FFE707980B990979884231D2FFE7099869
:10188000079900EB41114FF67F30C1F8080909991B
:10189000079A01EB4212D2F8001921F40011C2F8A4
:1018A00000190999079A01EB4211C1F8080B099830
:1018B000079900EB4111D1F8000B20F40010C1F89A
:1018C000000B0998079900EB4111D1F8000B40F08B
:1018D0000060C1F8000BFFE7079801300790C8E7E8
:1018E0000999D1F81C0840F00110C1F81C080B98A8
:1018F000C07B78B1FFE70999D1F8840840F00B006C
:10190000C1F884080999D1F8440840F00B00C1F8E7
:1019100044080FE00999D1F8140842F22B02104351
:10192000C1F814080999D1F8100840F00B00C1F86B
:101930001008FFE70999D1F8000820F4FE60C1F80B
:1019400000080B9A1068917902F29C4206F0BCFBE9
:101950000B980168486900F480504861FFE70B98D4
:10196000006807F051F8800400281FD5FFE70B98A6
:10197000006806F0BDF80B98006806F0ADFF0B9903
:10198000C8710B980068019001F00EFF01460198A4
:101990000B9AD27907F044F90B9800F029FB0B98C9
:1019A0000168486900F400504861FFE70B9800683F
:1019B00007F02AF8000700280AD5FFE70B9800F087
:1019C0004FFB0B980168486900F008004861FFE789
:1019D0000B98006807F018F80006002825D5FFE7E7
:1019E0000A99886920F08000886101200490FFE74F
:1019F00004980B990979884216D2FFE70B9804994D
:101A000001EBC10100EB810090F85702012806D1DB
:101A1000FFE70B989DF81010FFF742FAFFE7FFE78A
:101A2000049801300490E3E7FFE70B98006806F0A4
:101A3000EBFFC00200283CD5FFE701200490FFE740
:101A400004980B99097988422CD2FFE709980499E8
:101A500000EB4110D0F8000902900B98049901EBBB
:101A6000C10100EB8100007E012816D1FFE79DF83F
:101A70000B000006002810D5FFE70B98049901EB36
:101A8000C10100EB81010120C8750B989DF8101071
:101A900041F08001FFF704FAFFE7FFE70498013007
:101AA0000490CDE70B980168486900F48010486104
:101AB000FFE70B98006806F0A7FF8002002856D5C4
:101AC000FFE701200490FFE704980B990979884209
:101AD00046D2FFE70998049900EB4110D0F8000BBB
:101AE00002900B98049901EBC10100EB810090F882
:101AF000580201282FD1FFE79DF80B0000060028AF
:101B000029D5FFE7029800F480310B98D0F8D4046F
:101B100000F00100B0EB114F1DD1FFE70B980499C5
:101B200001EBC10100EB8101012081F857020A9904
:101B3000886940F0800088610A98406900060028A2
:101B400008D4FFE70999D1F8040840F40070C1F8FF
:101B5000040805E0FFE7FFE7049801300490B3E7CD
:101B60000B980168486900F400104861FFE70B9882
:101B7000006806F049FF400000280AD5FFE70B98EF
:101B8000FFF74EF90B980168486900F08040486102
:101B9000FFE70B98006806F037FF4007002815D5CF
:101BA000FFE70B980068406802909DF80800400726
:101BB000002804D5FFE70B98FFF766F9FFE7029AC4
:101BC0000B980168486810434860FFE7FFE70CB0D6
:101BD00080BD00000000000080B582B001908DF84B
:101BE00003100198D0F8E0049DF8031004F0D0FF32
:101BF00002B080BD0000000080B582B001908DF879
:101C000003100198D0F8E0049DF8031004F0F8FFE9
:101C100002B080BD0000000080B58CB00A900A9828
:101C200020B9FFE701208DF82F000EE10A9890F807
:101C3000950440B9FFE70A99002081F894040A98B6
:101C400000F00AF9FFE70A99032081F895040A9841
:101C5000006806F02DFA0A9B1868197C8DF8201090
:101C600059689A68DB680793069205910599069A68
:101C7000079BDDF820C0EE46CEF800C005F050FF0F
:101C800040B1FFE70A99022081F8950401208DF800
:101C90002F00DAE00A980068002106F021FF40B129
:101CA000FFE70A99022081F8950401208DF82F00A2
:101CB000CBE000208DF82700FFE79DF827000A9968
:101CC0000979884241DAFFE70A989DF8271001EB6D
:101CD000C10100EB8101012048759DF827000A9998
:101CE00000EBC00201EB820108759DF827000A99FC
:101CF00000EBC00201EB8201C8850A989DF827100D
:101D000001EBC10100EB8101002008760A999DF8E2
:101D1000272002EBC20201EB8201C8610A999DF8FB
:101D2000272002EBC20201EB820108620A999DF8AA
:101D3000272002EBC20201EB82014862FFE79DF817
:101D4000270001308DF82700B7E700208DF8270025
:101D5000FFE79DF827000A99097988423EDAFFE7F4
:101D60000A989DF8271001EBC10100EB81010020CA
:101D700081F855029DF827100A9A01EBC10302EB86
:101D8000830282F854120A999DF8272002EBC202BE
:101D900001EB820181F858020A999DF8272002EB95
:101DA000C20201EB8201C1F85C020A999DF827206A
:101DB00002EBC20201EB8201C1F860020A999DF8B0
:101DC000272002EBC20201EB8201C1F86402FFE7A7
:101DD0009DF8270001308DF82700BAE70A9B1868A4
:101DE000197C8DF8101059689A68DB680393029289
:101DF00001910199029A039BDDF810C0EE46CEF8DE
:101E000000C006F00DF840B1FFE70A99022081F802
:101E1000950401208DF82F0017E00A9900204874DE
:101E20000A99012081F895040A98007B012804D1C1
:101E3000FFE70A98FEF774FFFFE70A98006805F0CD
:101E4000D7FF00208DF82F00FFE79DF82F000CB082
:101E500080BD00000000000080B5C4B043900020A9
:101E60004290419040903F903E900EA8C021FEF7D6
:101E7000A7FA439800680021C4F20401884240F0A8
:101E8000B280FFE700200F904FF480200E904FF4B7
:101E9000401030900EA800F0EBF918B1FFE7FEF704
:101EA0009BFBFFE700F0D8F9FFE744F2E040C5F6FE
:101EB0000200016841F004010160006800F00400C4
:101EC0000D900D98FFE7FFE744F2E040C5F60200F1
:101ED000016841F001010160006800F001000C9010
:101EE0000C98FFE7FFE744F2E040C5F60200016806
:101EF00041F002010160006800F002000B900B98B5
:101F0000FFE70D203E90022006903F9000210591B2
:101F1000409141900A200790429040F60000C5F69B
:101F200002003EA90891FEF7C7FB059B069A079899
:101F300008994FF0280CCDF8F8C03F924093419299
:101F400042900020C5F60200FEF7B6FB059B069AFC
:101F50000798089943F6234CCDF8F8C03F92409378
:101F60004192429040F20040C5F60200FEF7A4FB09
:101F7000FFE744F2D840C5F60200016841F0007165
:101F80000160006800F000700A900A98FFE7FFE720
:101F900044F2D840C5F60200016841F0806101605A
:101FA000006800F0806009900998FFE74A200190DE
:101FB000002203921146FEF793FE0198FEF784FE7D
:101FC000039A4B2002901146FEF78AFE0298FEF714
:101FD0007BFE039A4D2004901146FEF781FE049883
:101FE000FEF772FEFFE744B080BD00000000000075
:101FF00080B582B0019001208DF803000198C0796E
:1020000020B9FFE700208DF803000CE00198C079AB
:10201000022804D1FFE701208DF8030002E0FEF75B
:10202000DBFAFFE7FFE70198D0F8E0049DF8031022
:1020300004F0EEFE0198D0F8E00404F065FE02B072
:1020400080BD00000000000080B582B001900198C2
:10205000D0F8E00404F0A8FE02B080BD000000004B
:1020600080B582B001900198D0F8E00404F0B0FE91
:1020700002B080BD0000000080B584B002908DF8F1
:102080000710FFE7029890F89404012804D1FFE7B5
:1020900002208DF80F0019E00299012081F89404C4
:1020A000FFE7FFE79DF8070002994874029800686F
:1020B0009DF8071006F084FDFFE70299002081F8E3
:1020C0009404FFE700208DF80F00FFE79DF80F0054
:1020D00004B080BD0000000080B582B0019001997D
:1020E000D1F8E00401F29C4104F0BEFE02B080BDD4
:1020F00080B584B00290029800680190FFE70298D2
:1021000090F89404012804D1FFE702208DF80F0015
:1021100028E00299012081F89404FFE7FFE7019885
:10212000C068400600280BD5FFE70298407B0128D5
:1021300006D1FFE70199886B40F480308863FFE7A0
:102140000298006806F040FB0298006805F038FE2F
:10215000FFE70299002081F89404FFE700208DF842
:102160000F00FFE79DF80F0004B080BD00000000E5
:1021700080B582B001900198D0F8E00404F0FCFE34
:1021800001980168D1F8000E40F00100C1F8000E7E
:102190000198C07A48B1FFE74EF61051CEF2000127
:1021A000086840F006000860FFE702B080BD00004C
:1021B00080B584B0029044F60C00C5F602000068B9
:1021C00000F004010020B0EB910F13D1FFE744F6BB
:1021D0000C00C5F60200006800F007000299884272
:1021E00004D0FFE701208DF80F002EE000208DF8CD
:1021F0000F002AE044F60C01C5F60201086820F041
:102200000700029A10430860FEF742FC0190FFE7C6
:1022100044F60400C5F60200006800F400510020F6
:10222000B0EB513F0DD1FFE7FEF732FC0199401AA8
:10223000B0F57A7F04D9FFE701208DF80F0004E0A4
:10224000E6E700208DF80F00FFE79DF80F0004B0CF
:1022500080BD00000000000044F60C01C5F602013C
:10226000086840F0807008607047000000000000BF
:1022700080B59AB0189000208DF857008DF8560060
:102280001898C0780007002848D5FFE71898806E96
:10229000149078B1FFE71498B0F5801F13D0FFE7D2
:1022A0001498B0F5001F16D0FFE71498B0F5401F42
:1022B00019D019E044F22C41C5F60201086840F437
:1022C0000030086014E018980830022102F0D8FCB1
:1022D0008DF857000CE018982830022102F0B8FD64
:1022E0008DF8570004E003E001208DF85700FFE768
:1022F0009DF8570060B9FFE744F25041C5F602016E
:10230000086820F44010189A926E1043086004E0A8
:102310009DF857008DF85600FFE7FFE718984078C2
:10232000C007002840D0FFE71898806D139004285C
:1023300020D81399DFE801F0030C141C1D0044F2AF
:102340002C41C5F60201086840F40030086015E031
:1023500018980830002102F093FC8DF857000DE02A
:1023600018982830002102F073FD8DF8570005E021
:1023700004E003E001208DF85700FFE79DF85700C7
:1023800060B9FFE744F25041C5F60201086820F049
:102390000700189A926D1043086004E09DF85700FA
:1023A0008DF85600FFE7FFE718984078800700286F
:1023B0004BD5FFE71898C06D129088B1FFE71298CF
:1023C000402816D0FFE7129880281AD0FFE712980D
:1023D000C0281ED0FFE71298B0F5807F1AD01AE00F
:1023E00044F22C41C5F60201086840F40030086050
:1023F00015E018980830002102F042FC8DF85700D3
:102400000DE018982830002102F022FD8DF85700C9
:1024100005E004E003E001208DF85700FFE79DF898
:10242000570060B9FFE744F25041C5F60201086861
:1024300020F4E070189AD26D1043086004E09DF813
:1024400057008DF85600FFE7FFE7189840784007DF
:10245000002850D5FFE71898D0F8A8001190A0B137
:10246000FFE71198B0F5001F18D0FFE71198B0F5FD
:10247000800F1BD0FFE71198B0F5C00F1ED0FFE70B
:102480001198B0F5000F1AD01AE044F22C41C5F6AD
:102490000201086840F40030086015E01898083020
:1024A000002102F0EDFB8DF857000DE01898283060
:1024B000002102F0CDFC8DF8570005E004E003E0B8
:1024C00001208DF85700FFE79DF8570068B9FFE736
:1024D00044F25841C5F60201086820F46000189AD9
:1024E000D2F8A8201043086004E09DF857008DF84A
:1024F0005600FFE7FFE7189840780007002850D5FE
:10250000FFE71898D0F8AC001090A0B1FFE7109842
:10251000B0F1807F18D0FFE71098B0F1007F1BD09A
:10252000FFE71098B0F1407F1ED0FFE71098B0F1A0
:10253000806F1AD01AE044F22C41C5F602010868F7
:1025400040F40030086015E018980830002102F0CF
:1025500097FB8DF857000DE018982830002102F005
:1025600077FC8DF8570005E004E003E001208DF8CA
:102570005700FFE79DF8570068B9FFE744F258415C
:10258000C5F60201086820F0E060189AD2F8AC2085
:102590001043086004E09DF857008DF85600FFE7EF
:1025A000FFE71898C078800700283ED5FFE7189805
:1025B000C06C0F90F0B1FFE70F98102808D0FFE72C
:1025C0000F9820280DD0FFE70F98302811D012E087
:1025D00044F22C41C5F60201086840F4003008605E
:1025E0000DE018980830022102F04AFB8DF85700E0
:1025F00005E004E003E001208DF85700FFE79DF8B7
:10260000570060B9FFE744F24C41C5F60201086883
:1026100020F03000189AD26C1043086004E09DF856
:1026200057008DF85600FFE7FFE718984078C0067E
:1026300000284ED5FFE71898006E0E90A0B1FFE776
:102640000E98B0F5805F18D0FFE70E98B0F5005FE8
:102650001BD0FFE70E98B0F5405F1ED0FFE70E9845
:10266000B0F5804F1AD01AE044F22C41C5F60201B1
:10267000086840F40030086015E018980830002120
:1026800002F0FEFA8DF857000DE01898283000216E
:1026900002F0DEFB8DF8570005E004E003E00120C6
:1026A0008DF85700FFE79DF8570060B9FFE744F247
:1026B0005041C5F60201086820F4E040189A126EF5
:1026C0001043086004E09DF857008DF85600FFE7BE
:1026D000FFE718984078800600284CD5FFE7189847
:1026E000406E0D90C8B1FFE70D98B0F5803F15D052
:1026F000FFE70D98B0F5003F18D0FFE70D98B0F553
:10270000403F1BD0FFE70D98B0F5802F17D0FFE7B3
:102710000D98B0F5A02F13D013E016E018980830EC
:10272000012102F0ADFA8DF857000EE0189828301C
:10273000012102F08DFB8DF8570006E005E004E072
:1027400003E001208DF85700FFE79DF8570060B9BE
:10275000FFE744F25041C5F60201086820F4E0208A
:10276000189A526E1043086004E09DF857008DF8E7
:102770005600FFE7FFE718984078400600284ED53E
:10278000FFE71898D0F8B0000C90C8B1FFE70C989C
:10279000B0F1805F15D0FFE70C98B0F1005F18D062
:1027A000FFE70C98B0F1405F1BD0FFE70C98B0F149
:1027B000804F17D0FFE70C98B0F1A04F13D013E073
:1027C00016E018980830012102F05AFA8DF85700E7
:1027D0000EE018982830012102F03AFB8DF85700DE
:1027E00006E005E004E003E001208DF85700FFE774
:1027F0009DF8570068B9FFE744F25841C5F6020159
:10280000086820F0E040189AD2F8B0201043086021
:1028100004E09DF857008DF85600FFE7FFE7189891
:102820004078000600283BD5FFE71898006F0B9012
:10283000D8B1FFE70B98B0F1805F05D0FFE70B98A8
:10284000B0F1005F09D011E044F22C41C5F602015D
:10285000086840F4003008600CE018980830012146
:1028600002F00EFA8DF8570004E003E001208DF825
:102870005700FFE79DF8570060B9FFE744F2504169
:10288000C5F60201086820F04050189A126F1043F4
:10289000086004E09DF857008DF85600FFE7FFE759
:1028A0001898C078C007002837D0FFE71898806CC8
:1028B0000A90032817D80A99DFE801F014020B13D5
:1028C00044F22C41C5F60201086840F4003008606B
:1028D0000DE018980830022102F0D2F98DF8570067
:1028E00005E004E003E001208DF85700FFE79DF8C4
:1028F000570060B9FFE744F24C41C5F60201086891
:1029000020F00300189A926C1043086004E09DF8D0
:1029100057008DF85600FFE7FFE7189880784006CB
:10292000002840F1B480FFE744F60001C5F602013B
:10293000086840F480700860FEF7AAF81690FFE778
:1029400044F60000C5F602000068C00500280CD45B
:10295000FFE7FEF79DF81699401A652804D3FFE7B4
:1029600003208DF8570000E0EAE79DF857000028A3
:1029700040F08780FFE744F27040C5F6020000682F
:1029800000F440701899D1F8B41001F440718842F5
:1029900013D0FFE744F27041C5F60201086820F445
:1029A00040701790086840F480300860086820F490
:1029B0008030086017980860FFE71898D0F8B400D6
:1029C000B0F5807F1FD1FFE7FEF762F81690FFE7B2
:1029D00044F27040C5F60200006800F002010020D9
:1029E000B0EB510F0ED1FFE7FEF752F81699401ADF
:1029F00041F28931884204D3FFE703208DF8570064
:102A000000E0E5E7FFE79DF85700A0BBFFE7FFE721
:102A10001898D0F8B40000F44070B0F5407F13D19E
:102A2000FFE744F21041C5F60201086820F47C502B
:102A3000189AD2F8B4204FF6F043C0F6FF731A404C
:102A400040EA1210086008E044F21041C5F60201A5
:102A5000086820F47C500860FFE71898D0F8B4208C
:102A60006FF31F3244F27041C5F60201086810434B
:102A70000860FFE704E09DF857008DF85600FFE777
:102A800004E09DF857008DF85600FFE7FFE718981F
:102A90000068C007002800F04C80FFE71898C06F5E
:102AA000099028282BD80999DFE801F01529292950
:102AB0002929292916292929292929291E292929A4
:102AC000292929292629292929292929272929297B
:102AD00029292929280016E018980830012102F038
:102AE000CFF88DF857000EE018982830012102F039
:102AF000AFF98DF8570006E005E004E003E001209F
:102B00008DF85700FFE79DF8570060B9FFE744F2E2
:102B10005441C5F60201086820F03800189AD26FB7
:102B20001043086004E09DF857008DF85600FFE759
:102B3000FFE7189800788007002839D5FFE7189834
:102B4000806F0890052819D80899DFE801F0030480
:102B50000C14151616E018980830012102F090F8B0
:102B60008DF857000EE018982830012102F070F916
:102B70008DF8570006E005E004E003E001208DF841
:102B80005700FFE79DF8570060B9FFE744F2544152
:102B9000C5F60201086820F00700189A926F1043EA
:102BA000086004E09DF857008DF85600FFE7FFE746
:102BB00018980078400700283BD5FFE71898D0F810
:102BC00094000790052819D80799DFE801F003045D
:102BD0000C14151616E018980830012102F050F870
:102BE0008DF857000EE018982830012102F030F9D6
:102BF0008DF8570006E005E004E003E001208DF8C1
:102C00005700FFE79DF8570068B9FFE744F25841C5
:102C1000C5F60201086820F00700189AD2F894203F
:102C20001043086004E09DF857008DF85600FFE758
:102C3000FFE718980078800600284ED5FFE718981F
:102C4000D0F890000690C8B1FFE70698B0F1805F19
:102C500015D0FFE70698B0F1005F18D0FFE706989F
:102C6000B0F1405F1BD0FFE70698B0F1804F17D05E
:102C7000FFE70698B0F1A04F13D013E016E01898C4
:102C80000830002101F0FCFF8DF857000EE0189885
:102C90002830022102F0DCF88DF8570006E005E04C
:102CA00004E003E001208DF85700FFE79DF857008E
:102CB00068B9FFE744F25441C5F60201086820F004
:102CC000E040189AD2F890201043086004E09DF884
:102CD00057008DF85600FFE7FFE718980078400688
:102CE00000284ED5FFE71898D0F89C000590C8B191
:102CF000FFE70598B0F5806F15D0FFE70598B0F5B0
:102D0000006F18D0FFE70598B0F5406F1BD0FFE7C4
:102D10000598B0F5805F17D0FFE70598B0F5A05F84
:102D200013D013E016E018980830002101F0A8FF36
:102D30008DF857000EE018982830022102F088F82C
:102D40008DF8570006E005E004E003E001208DF86F
:102D50005700FFE79DF8570068B9FFE744F2584174
:102D6000C5F60201086820F4E050189AD2F89C20B9
:102D70001043086004E09DF857008DF85600FFE707
:102D8000FFE718980078000600284ED5FFE718984E
:102D9000D0F8A0000490C8B1FFE70498B0F5005F38
:102DA00015D0FFE70498B0F5804F18D0FFE70498DE
:102DB000B0F5C04F1BD0FFE70498B0F5004F17D017
:102DC000FFE70498B0F5204F13D013E016E01898F1
:102DD0000830002101F054FF8DF857000EE01898DC
:102DE0002830022102F034F88DF8570006E005E0A3
:102DF00004E003E001208DF85700FFE79DF857003D
:102E000068B9FFE744F25841C5F60201086820F4AA
:102E10006040189AD2F8A0201043086004E09DF8A2
:102E200057008DF85600FFE7FFE718980078000775
:102E3000002820D5FFE71898D0F88400B0F5805F0F
:102E40000CD1FFE718982830022102F001F820B1D8
:102E5000FFE701208DF85600FFE7FFE744F25441F9
:102E6000C5F60201086820F44050189AD2F8842070
:102E700010430860FFE718980078C006002820D5A6
:102E8000FFE71898D0F89800B0F5807F0CD1FFE7E5
:102E900018982830022101F0DBFF20B1FFE7012064
:102EA0008DF85600FFE7FFE744F25841C5F60201EE
:102EB000086820F44070189AD2F8982010430860EF
:102EC000FFE718988078000700283CD5FFE718989E
:102ED000D0F8A400039050B1FFE70398B0F5803F0D
:102EE0000DD0FFE70398B0F5003F10D010E0189820
:102EF0000830002101F0C4FE8DF857000CE018984E
:102F00002830022101F0A4FF8DF8570004E003E00F
:102F100001208DF85700FFE79DF8570068B9FFE7DB
:102F200044F25841C5F60201086820F44030189A6E
:102F3000D2F8A4201043086004E09DF857008DF8F3
:102F40005600FFE7FFE718988078400700283FD534
:102F5000FFE71898D0F888000290B0F5801F0AD0DB
:102F6000FFE70298B0F5001F0ED0FFE70298B0F51A
:102F7000401F11D011E044F22C41C5F6020108684F
:102F800040F4003008600CE018982830012101F06E
:102F90005FFF8DF8570004E003E001208DF8570033
:102FA000FFE79DF8570068B9FFE744F25441C5F6C2
:102FB0000201086820F44010189AD2F888201043C3
:102FC000086004E09DF857008DF85600FFE7FFE722
:102FD00018988078C007A8B3FFE71898006D019093
:102FE00028B1FFE70198B0F5803F09D010E044F226
:102FF0002C41C5F60201086840F4003008600BE07F
:1030000018980830022101F03BFE8DF8570003E0CC
:1030100001208DF85700FFE79DF8570060B9FFE7E2
:1030200044F24C41C5F60201086820F48030189A39
:10303000126D1043086004E09DF857008DF85600AB
:10304000FFE7FFE71898C078800600280CD5FFE757
:1030500018982830022101F0FBFE20B1FFE7012083
:103060008DF85600FFE7FFE7189880788007002862
:103070003CD5FFE71898D0F880000090D0B1FFE76A
:103080000098B0F5807F0AD0FFE70098B0F5007F88
:103090000ED0FFE70098B0F5407F0AD00BE044F275
:1030A0002C41C5F60201086840F40030086006E0D3
:1030B00005E004E003E001208DF85700FFE79DF8EC
:1030C000570068B9FFE744F25441C5F602010868A9
:1030D00020F44070189AD2F880201043086004E071
:1030E0009DF857008DF85600FFE7FFE718988078A5
:1030F000C00600280CD5FFE744F25041C5F6020196
:10310000086820F00040189A526F10430860FFE7EB
:103110001898C078C00600280DD5FFE744F210418A
:10312000C5F60201086820F48040189AD2F8B82049
:1031300010430860FFE718988078800600280CD5B7
:10314000FFE744F25041C5F60201086820F08070A4
:10315000189AD26E10430860FFE71898C0784006AE
:10316000002811D5FFE7FFE744F21041C5F6020140
:10317000086820F4004008601898D0F8BC2008685F
:1031800010430860FFE7FFE71898C07800060028A2
:103190000CD5FFE744F24C41C5F60201086820F067
:1031A0004050189A526D10430860FFE718988078D5
:1031B000000600280DD5FFE744F25441C5F6020190
:1031C000086820F44000189AD2F88C201043086058
:1031D000FFE718980079C00790B1FFE7189808300A
:1031E000002101F04DFD8DF857009DF8570008B9FA
:1031F000FFE704E09DF857008DF85600FFE7FFE772
:10320000189800798007002812D5FFE71898083031
:10321000012101F035FD8DF857009DF8570008B9E0
:10322000FFE704E09DF857008DF85600FFE7FFE741
:10323000189800794007002812D5FFE71898083041
:10324000022101F01DFD8DF857009DF8570008B9C7
:10325000FFE704E09DF857008DF85600FFE7FFE711
:10326000189800790007002812D5FFE71898283031
:10327000002101F0EDFD8DF857009DF8570008B9C9
:10328000FFE704E09DF857008DF85600FFE7FFE7E1
:1032900018980079C006002812D5FFE71898283042
:1032A000012101F0D5FD8DF857009DF8570008B9B0
:1032B000FFE704E09DF857008DF85600FFE7FFE7B1
:1032C000189800798006002812D5FFE71898283052
:1032D000022101F0BDFD8DF857009DF8570008B997
:1032E000FFE704E09DF857008DF85600FFE7FFE781
:1032F0009DF8560020B9FFE700208DF8670003E035
:1033000001208DF86700FFE79DF867001AB080BDC7
:1033100080B586B004900391049820B9FFE701209E
:103320008DF817003CE2039842F20001C5F200213B
:10333000096801F00F01884216D9FFE742F2000048
:10334000C5F20020016821F00F01039A11430160CA
:10335000006800F00F000399884204D0FFE70120C5
:103360008DF817001CE2FFE704980078400700285A
:1033700019D5FFE70498006944F21841C5F6020127
:10338000096801F0700188420CD9FFE744F2184146
:10339000C5F60201086820F07000049A1269104313
:1033A0000860FFE7FFE7049800780007002819D5B8
:1033B000FFE70498406944F21C41C5F60201096820
:1033C00001F0700188420CD9FFE744F21C41C5F6B8
:1033D0000201086820F07000049A526910430860E6
:1033E000FFE7FFE704980078C006002819D5FFE73B
:1033F0000498806944F21C41C5F60201096801F491
:10340000E06188420CD9FFE744F21C41C5F6020195
:10341000086820F4E060049A926910430860FFE7AE
:10342000FFE7049800788006002819D5FFE7049884
:10343000C06944F22041C5F60201096801F070013B
:1034400088420CD9FFE744F22041C5F60201086822
:1034500020F07000049AD26910430860FFE7FFE78C
:10346000049800788007002819D5FFE70498C06801
:1034700044F21841C5F60201096801F00F018842C3
:103480000CD9FFE744F21841C5F60201086820F0A4
:103490000F00049AD26810430860FFE7FFE7049822
:1034A0000078C007002800F08C80FFE744F2184144
:1034B000C5F60201086820F47060049A926810430F
:1034C000086004984068022811D1FFE744F20040E8
:1034D000C5F60200006800F400310020B0EB514F47
:1034E00004D1FFE701208DF8170059E13EE0049870
:1034F0004068032811D1FFE744F20040C5F60200FE
:10350000006800F000710020B0EB516F04D1FFE7BC
:1035100001208DF8170043E127E004984068012856
:1035200011D1FFE744F20040C5F60200006800F444
:1035300080710020B0EB112F04D1FFE701208DF83E
:1035400017002DE110E044F20040C5F602000068CB
:1035500000F004010020B0EB910F04D1FFE701203F
:103560008DF817001CE1FFE7FFE7FFE744F2104189
:10357000C5F60201086820F00700049A526810435B
:103580000860FDF785FA0190FFE744F21040C5F6A8
:103590000200006800F0380004994968B0EBC10FE0
:1035A0000ED0FFE7FDF774FA0199401A41F2893114
:1035B000884204D3FFE703208DF81700F0E0E4E72A
:1035C000FFE7049800788007002819D5FFE70498E2
:1035D000C06844F21841C5F60201096801F00F0104
:1035E00088420CD2FFE744F21841C5F60201086890
:1035F00020F00F00049AD26810430860FFE7FFE74D
:10360000039842F20001C5F20021096801F00F01A0
:10361000884216D2FFE742F20000C5F2002001689E
:1036200021F00F01039A11430160006800F00F00C0
:103630000399884204D0FFE701208DF81700AFE01E
:10364000FFE7049800784007002819D5FFE70498A1
:10365000006944F21841C5F60201096801F07001E1
:1036600088420CD2FFE744F21841C5F6020108680F
:1036700020F07000049A126910430860FFE7FFE72A
:10368000049800780007002819D5FFE704984069DE
:1036900044F21C41C5F60201096801F0700188423C
:1036A0000CD2FFE744F21C41C5F60201086820F085
:1036B0007000049A526910430860FFE7FFE704981E
:1036C0000078C006002819D5FFE70498806944F205
:1036D0001C41C5F60201096801F4E06188420CD280
:1036E000FFE744F21C41C5F60201086820F4E060DF
:1036F000049A926910430860FFE7FFE70498007896
:103700008006002819D5FFE70498C06944F22041DB
:10371000C5F60201096801F0700188420CD2FFE78A
:1037200044F22041C5F60201086820F07000049AB6
:10373000D26910430860FFE7FFE700F061F844F248
:103740001842C5F602021168C1F3032348F6CE7190
:10375000C0F60001CB5C03F01F03D8400090009836
:10376000126802F00F02895C01F01F01C84040F2AC
:103770002C01C2F200410860009840F22801C2F218
:103780000041086040F29810C2F200400068FDF766
:10379000D7F98DF80B009DF80B008DF81700FFE7A7
:1037A0009DF8170006B080BD80B582B000F028F803
:1037B00044F21842C5F602021168C1F3032348F629
:1037C000CE71C0F60001CB5C03F01F03D84001901E
:1037D0000198126802F00F02895C01F01F0120FAC3
:1037E00001F140F22C00C2F200400160019940F268
:1037F0002802C2F200421160006802B080BD0000E1
:103800008AB044F21040C5F60200006800F03800AB
:1038100001460191182800F269810199DFE811F051
:1038200019006601660166016601660166016601AE
:103830003A0066016601660166016601660166017D
:103840004000660166016601660166016601660167
:10385000460044F20040C5F60200006800F0200176
:103860000020B0EB511F0ED0FFE744F20040C5F638
:1038700002000068C0F3C10149F20000C0F2D0307C
:10388000C840029005E049F20000C0F2D03002903A
:10389000FFE731E140F60010C0F23D0002902BE15D
:1038A00047F64000C0F27D10029025E144F2284026
:1038B000C5F60200016801F0030108910068C0F339
:1038C0000510079044F22C40C5F60200006800F095
:1038D00001000690069844F23441C5F602010968D9
:1038E00089B2C908484300EE100AB8EE400A8DEDCF
:1038F000040A0798002800F0F580FFE70898009078
:1039000048B1FFE70098012869D0FFE70098022836
:1039100000F08980ABE044F20040C5F60200006888
:1039200000F020010020B0EB511F33D0FFE744F23C
:103930000040C5F602000068C0F3C10149F2000072
:10394000C0F2D030C84005909DED050AB8EE400A9F
:103950009DED071AB8EE411A80EE010A44F230409C
:10396000C5F6020000686FF35F2001EE100AB8EEA2
:10397000411A9DED042A9FED633A82EE032A31EE4F
:10398000021AB7EE002A31EE021A20EE010A8DED7E
:10399000030A23E09DED070AB8EE401A9FED5B0A8B
:1039A00080EE010A44F23040C5F6020000686FF371
:1039B0005F2001EE100AB8EE411A9DED042A9FED3A
:1039C000513A82EE032A31EE021AB7EE002A31EEA6
:1039D000021A20EE010A8DED030AFFE76BE09DED70
:1039E000070AB8EE401A9FED480A80EE010A44F239
:1039F0003040C5F6020000686FF35F2001EE100A48
:103A0000B8EE411A9DED042A9FED3E3A82EE032A5C
:103A100031EE021AB7EE002A31EE021A20EE010A48
:103A20008DED030A47E09DED070AB8EE401A9FEDC1
:103A3000340A80EE010A44F23040C5F60200006804
:103A40006FF35F2001EE100AB8EE411A9DED042AD3
:103A50009FED2C3A82EE032A31EE021AB7EE002ACD
:103A600031EE021A20EE010A8DED030A23E09DEDEE
:103A7000070AB8EE401A9FED240A80EE010A44F2CC
:103A80003040C5F6020000686FF35F2001EE100AB7
:103A9000B8EE411A9DED042A9FED1A3A82EE032AF0
:103AA00031EE021AB7EE002A31EE021A20EE010AB8
:103AB0008DED030AFFE744F23040C5F602000068CE
:103AC00081B2012000EB512009909DED030A9DED8C
:103AD000091AB8EE411A80EE010ABCEEC00A8DED5B
:103AE000020A02E000200290FFE705E040F6001025
:103AF000C0F23D000290FFE702980AB0704700BF95
:103B000020BCBE4B000000460024744A0024744CC4
:103B100080B58CB00A900A9828B9FFE701208DF88B
:103B20002F0000F09DBD0A980078C007002800F023
:103B3000B980FFE744F21040C5F60200006800F0CB
:103B40003800069044F22840C5F60200006805904F
:103B5000069810280AD0FFE7069818281CD1FFE71E
:103B6000059800F00300022816D1FFE744F2004058
:103B7000C5F60200006800F400310020B0EB514FA0
:103B800009D0FFE70A98406828B9FFE701208DF8BF
:103B90002F0000F065BD84E0FFE70A984068B0F5AB
:103BA000803F09D1FFE744F20041C5F602010868F1
:103BB00040F48030086032E00A98406868B9FFE756
:103BC00044F20041C5F60201086820F48030086024
:103BD000086820F48020086020E00A984068B0F56A
:103BE000A02F0DD1FFE744F20041C5F6020108689D
:103BF00040F480200860086840F4803008600CE0E1
:103C000044F20041C5F60201086820F480300860E3
:103C1000086820F480200860FFE7FFE7FFE7FFE780
:103C20000A984068F0B1FFE7FCF732FF0990FFE720
:103C300044F20040C5F60200006800F400310020A4
:103C4000B0EB514F0DD1FFE7FCF722FF0999401A65
:103C5000652805D3FFE703208DF82F0000F000BD95
:103C6000E6E71DE0FCF714FF0990FFE744F200408F
:103C7000C5F60200006800F400310020B0EB514F9F
:103C80000DD0FFE7FCF704FF0999401A652805D31A
:103C9000FFE703208DF82F0000F0E2BCE6E7FFE726
:103CA000FFE7FFE70A9800788007002840F11681B7
:103CB000FFE744F21040C5F60200006800F038004B
:103CC000049044F22840C5F602000068039004986E
:103CD00050B1FFE70498182878D1FFE79DF80C0051
:103CE0008007002872D1FFE744F20040C5F60200C9
:103CF000006800F004010020B0EB910F09D0FFE74D
:103D00000A98C06828B9FFE701208DF82F0000F05D
:103D1000A7BC44F20041C5F60201086820F0190072
:103D20000A9AD26810430860FCF7B2FE0990FFE7D8
:103D300044F20040C5F60200006800F004010020D3
:103D4000B0EB910F0DD1FFE7FCF7A2FE0999401AE5
:103D5000032805D3FFE703208DF82F0000F080BC77
:103D6000E6E7FFE7FCF78CFE41F2030188421DD82D
:103D7000FFE70A98006940280AD1FFE744F20441AE
:103D8000C5F602010868202262F3113008600CE0D9
:103D900044F20441C5F60201086820F47C300A9A16
:103DA000126940EA02300860FFE70CE044F2044187
:103DB000C5F60201086820F0FE400A9A126940EA3E
:103DC00002600860FFE7FFE7FFE786E00A98C06847
:103DD00000285CD0FFE744F20041C5F60201086804
:103DE00020F019000A9AD26810430860FCF750FED0
:103DF0000990FFE744F20040C5F60200006800F0B9
:103E000004010020B0EB910F0DD1FFE7FCF740FE5D
:103E10000999401A032805D3FFE703208DF82F00E6
:103E200000F01EBCE6E7FFE7FCF72AFE41F20301C3
:103E300088421DD8FFE70A98006940280AD1FFE7A9
:103E400044F20441C5F602010868202262F31130F1
:103E500008600CE044F20441C5F60201086820F451
:103E60007C300A9A126940EA02300860FFE70CE0F1
:103E700044F20441C5F60201086820F0FE400A9AA7
:103E8000126940EA02600860FFE7FFE724E044F2BD
:103E90000041C5F60201086820F001000860FCF747
:103EA000F7FD0990FFE744F20040C5F60200006804
:103EB00000F004010020B0EB910F0CD0FFE7FCF7FD
:103EC000E7FD0999401A032804D3FFE703208DF882
:103ED0002F00C5E3E7E7FFE7FFE7FFE70A98007871
:103EE000C006002840F1EB80FFE744F21040C5F621
:103EF0000200006800F03800029044F22840C5F645
:103F0000020000680190029808280AD0FFE7029892
:103F1000182850D1FFE7019800F0030001284AD18A
:103F2000FFE744F20040C5F60200006800F480712B
:103F30000020B0EB112F09D0FFE70A98C069802854
:103F400004D0FFE701208DF82F0089E3FFE7FCF79D
:103F500097FD41F2030188421DD8FFE70A98006AE5
:103F600020280AD1FFE744F20441C5F6020108689F
:103F7000102262F39E6008600CE044F20441C5F632
:103F80000201086820F0F8400A9A126A40EA82604A
:103F90000860FFE70CE044F20C41C5F60201086836
:103FA00020F07C500A9A126A40EA02600860FFE73B
:103FB000FFE7FFE782E00A98C069002858D0FFE7D2
:103FC00044F20041C5F60201086840F08000086034
:103FD000FCF75EFD0990FFE744F20040C5F60200E1
:103FE000006800F480710020B0EB112F0CD1FFE7C6
:103FF000FCF74EFD0999401A032804D3FFE703207C
:104000008DF82F002CE3E7E7FFE7FCF739FD41F2DD
:10401000030188421DD8FFE70A98006A20280AD1C8
:10402000FFE744F20441C5F602010868102262F37A
:104030009E6008600CE044F20441C5F60201086885
:1040400020F0F8400A9A126A40EA82600860FFE7AE
:104050000CE044F20C41C5F60201086820F07C50E7
:104060000A9A126A40EA02600860FFE7FFE724E06C
:1040700044F20041C5F60201086820F080000860A3
:10408000FCF706FD0990FFE744F20040C5F6020088
:10409000006800F480710020B0EB112F0CD0FFE716
:1040A000FCF7F6FC0999401A032804D3FFE7032024
:1040B0008DF82F00D4E2E7E7FFE7FFE7FFE70A9874
:1040C0000078000700284FD5FFE70A98406928B319
:1040D000FFE744F27441C5F60201086840F00100B0
:1040E0000860FCF7D5FC0990FFE744F27440C5F680
:1040F0000200006800F002010020B0EB510F0CD16B
:10410000FFE7FCF7C5FC0999401A032804D3FFE731
:1041100003208DF82F00A3E2E7E724E044F2744186
:10412000C5F60201086820F001000860FCF7B0FC49
:104130000990FFE744F27440C5F60200006800F001
:1041400002010020B0EB510F0CD0FFE7FCF7A0FC00
:104150000999401A032804D3FFE703208DF82F00A4
:104160007EE2E7E7FFE7FFE70A980078800600288D
:104170004FD5FFE70A98806928B3FFE744F2004172
:10418000C5F60201086840F480500860FCF780FC26
:104190000990FFE744F20040C5F60200006800F411
:1041A00000510020B0EB513F0CD1FFE7FCF770FC51
:1041B0000999401A032804D3FFE703208DF82F0044
:1041C0004EE2E7E724E044F20041C5F60201086848
:1041D00020F480500860FCF75BFC0990FFE744F294
:1041E0000040C5F60200006800F400510020B0EB6A
:1041F000513F0CD0FFE7FCF74BFC0999401A03280C
:1042000004D3FFE703208DF82F0029E2E7E7FFE75B
:10421000FFE70A9800784007002840F1A780FFE7F1
:1042200044F60001C5F60201086840F48070086099
:10423000FCF72EFC0990FFE744F60000C5F60200EB
:104240000068C00500280CD4FFE7FCF721FC0999A1
:10425000401A652804D3FFE703208DF82F00FFE103
:10426000EAE7FFE70A988068012809D1FFE744F2EE
:104270007041C5F60201086840F00100086031E0B5
:104280000A98806868B9FFE744F27041C5F60201F8
:10429000086820F001000860086820F00400086049
:1042A0001FE00A98806805280DD1FFE744F27041AD
:1042B000C5F60201086840F004000860086840F094
:1042C000010008600CE044F27041C5F60201086884
:1042D00020F001000860086820F004000860FFE793
:1042E000FFE7FFE7FFE70A988068F8B1FFE7FCF710
:1042F000CFFB0990FFE744F27040C5F6020000686A
:1043000000F002010020B0EB510F0ED1FFE7FCF7E7
:10431000BFFB0999401A41F28931884204D3FFE773
:1043200003208DF82F009BE1E5E71EE0FCF7B0FBD2
:104330000990FFE744F27040C5F60200006800F003
:1043400002010020B0EB510F0ED0FFE7FCF7A0FBFD
:104350000999401A41F28931884204D3FFE70320CA
:104360008DF82F007CE1E5E7FFE7FFE70A98406A58
:10437000002800F07181FFE744F21040C5F602000A
:10438000006800F03800182800F0E080FFE70A9885
:10439000406A022840F0B480FFE744F20041C5F6CD
:1043A0000201086820F080700860FCF771FB09903A
:1043B000FFE744F20040C5F60200006800F000711B
:1043C0000020B0EB516F0CD0FFE7FCF761FB0999BF
:1043D000401A032804D3FFE703208DF82F003FE1A4
:1043E000E7E7FFE744F22841C5F60201086840F21A
:1043F000F33290430A9B9A6ADB6A42EA0312104343
:1044000008600A99086BD1F834C08B6BCA6B01380D
:104410006FF35F204FF60061CFF6FF7101EB4C2187
:1044200089B208440021CFF6FF7101EB034101F48A
:10443000FE0108444FF07F4101EB026101F0FE41B3
:10444000084444F23041C5F602010860FFE744F237
:104450002C41C5F602010091086820F001000860B7
:1044600044F23442C5F6020210684FF6F8739843DE
:104470000A9B9B6C40EAC3001060086820F00C00A7
:104480000A9A126C10430860086820F002000A9A29
:10449000526C10430860086840F480300860086877
:1044A00040F400300860086840F480200860086824
:1044B00040F00100086044F20041C5F602010868BE
:1044C00040F080700860FCF7E3FA0990FFE744F2DF
:1044D0000040C5F60200006800F000710020B0EB5B
:1044E000516F0CD1FFE7FCF7D3FA0999401A032862
:1044F00004D3FFE703208DF82F00B1E0E7E724E0C5
:1045000044F20041C5F60201086820F0807008609E
:10451000FCF7BEFA0990FFE744F20040C5F602003E
:10452000006800F000710020B0EB516F0CD0FFE785
:10453000FCF7AEFA0999401A032804D3FFE70320D9
:104540008DF82F008CE0E7E7FFE784E044F2284095
:10455000C5F602000068089044F23040C5F602003B
:10456000006807900A98406A012837D0FFE708984A
:1045700000F003000A99896A88422FD1FFE7089862
:1045800000F47C710A98C06AB0EB111F26D1FFE7D6
:1045900007986FF35F200A99096B013988421DD192
:1045A000FFE7BDF81C100A98406B0138B0EB512FA3
:1045B00014D1FFE7079800F4FE010A98806B0138D8
:1045C000B0EB114F0AD1FFE7079800F0FE410A98BF
:1045D000C06B0138B0EB116F04D0FFE701208DF8FC
:1045E0002F003DE044F23440C5F60200006880B27E
:1045F000C00808900A98806C0899884229D0FFE783
:1046000044F22C41C5F60201086820F00100086060
:10461000FCF73EFA0990FFE7FCF73AFA0999401ACD
:1046200008B9FFE7F8E744F23441C5F6020108682B
:104630004FF6F87290430A9A926C40EAC200086002
:1046400044F22C41C5F60201086840F00100086000
:10465000FFE7FFE7FFE7FFE700208DF82F00FFE708
:104660009DF82F000CB080BD80B582B001900198FC
:1046700000F0F6FC02B080BDFFE7FEE7000000009E
:1046800083B0029001918DF8032000208DF8020084
:104690008DF80200FFE79DF802009DF803108842A4
:1046A00029DAFFE70298000F092809D8FFE70298E6
:1046B000000F303001999DF8022001F8120009E046
:1046C0000299372000EB117001999DF8022001F842
:1046D0001200FFE702980001029001989DF8021075
:1046E00000EB410100204870FFE79DF80200013017
:1046F0008DF80200CFE703B0704700000000000013
:1047000080B586B00020019005900490039002903F
:10471000FCF79AFA019801218DF808108DF809002C
:1047200003901F228DF8102087228DF811208DF81C
:1047300012008DF813008DF814108DF815108DF8F7
:1047400016008DF8170002A8FCF73EFA0420FCF7CB
:104750008FFA06B080BD000083B0FFE744F2E0406E
:10476000C5F60200016841F004010160006800F034
:10477000040002900298FFE7FFE744F2E040C5F62C
:104780000200016841F001010160006800F00100D1
:1047900001900198FFE7FFE744F2E040C5F6020010
:1047A000016841F002010160006800F00200009021
:1047B0000098FFE703B0704780B541F22460C2F271
:1047C000004040F20401C2F20041012201F018FF52
:1047D00018B1FFE7FBF700FFFFE741F22460C2F2E8
:1047E000004040F23001C2F2004102F035FC18B145
:1047F000FFE7FBF7F1FEFFE741F22460C2F2004061
:1048000040F2AC01C2F2004101F0EEF818B1FFE74E
:10481000FBF7E2FEFFE741F22460C2F2004002F043
:10482000ABFD18B1FFE7FBF7D7FEFFE7FDF714FD7F
:1048300080BD000000000000FFE7FEE70000000070
:10484000FFE7FEE70000000088B0079006910592A0
:10485000079800F0070004900498C0F107000528AD
:1048600003D3FFE70420019004E00498C0F107009F
:104870000190FFE70198039004980430062803D8BC
:10488000FFE70020009003E0049803380090FFE762
:104890000098029006980399012202FA01F1013969
:1048A0000840029B984005999A40013A11400843FC
:1048B00008B070470000000080B541F60010C2F259
:1048C0000040FCF741FD80BD80B541F60010C2F20A
:1048D0000040FCF739FD80BD80B541F60010C2F202
:1048E0000040FCF731FD80BD80B586B00590049195
:1048F000059800680390039802900398006C01905B
:104900000298049900EB4110D0F8080B0090019830
:1049100043F20B01C4F6547188420FD3FFE79DF8B0
:1049200001000006002809D5FFE70298049900EB72
:1049300041114FF40040C1F8080BFFE70598FDF75F
:10494000CBFB019843F20B01C4F6547188420DD39E
:10495000FFE705988079012808D1FFE705990868E5
:1049600001F29C42012103F0AFFBFFE7002006B0FB
:1049700080BD00000000000080B588B0079006915F
:10498000079800680490049803900498006C0290C3
:104990000398069900EB4110D0F8080B0190079896
:1049A0008079012840F08180FFE79DF8040000072E
:1049B000002818D5FFE7029843F20B01C4F65471A2
:1049C00088420FD3FFE79DF805000006002809D5AF
:1049D000FFE70398069900EB41114FF40040C1F83E
:1049E000080BFFE760E09DF804008006002808D56A
:1049F000FFE70398069900EB41112020C1F8080B4E
:104A000051E09DF8040010F0280F4AD1FFE702980A
:104A100043F20B01C4F6547188420FD3FFE79DF8AF
:104A200005000006002809D5FFE70398069900EB6A
:104A300041114FF40040C1F8080B31E00798069986
:104A400001EBC10100EB810000F5157005900598A0
:104A5000006A0399069A01EB4211D1F8101B6FF31B
:104A6000DF41401A05994861069898B9FFE7059813
:104A7000006940B9FFE70799086801F29C420121EB
:104A800003F022FB05E00599C8684A691044C86034
:104A9000FFE7FFE707989DF81810FCF7E1F9FFE73B
:104AA00000E0FFE7FFE7FFE747E0029843F20A1163
:104AB000C4F65471884224D1FFE79DF80500000632
:104AC000002809D5FFE70398069900EB41114FF440
:104AD0000040C1F8080B13E09DF804008006002890
:104AE00008D5FFE70398069900EB41112020C1F893
:104AF000080BFFE707989DF81810FCF7B1F9FFE7DE
:104B00001AE0069890B9FFE70798069901EBC101F2
:104B100000EB8100D0F8640240B9FFE7079908680C
:104B200001F29C42002103F0CFFAFFE707989DF8BD
:104B30001810FCF795F9FFE7FFE7002008B080BDEB
:104B400080B58CB00A9009910A980068089008987E
:104B500007900A98099901EBC10100EB810014301C
:104B60000690069801694069884204D9FFE7012050
:104B70008DF82F0079E0069908694969401A059077
:104B8000059806998968884204D9FFE706988068E5
:104B90000590FFE70598033080080490FFE7079829
:104BA000099900EB4110D0F8180981B2049A00204D
:104BB000914202900FD3FFE70698026941690020F5
:104BC0009142029007D2FFE706980069002818BFBB
:104BD00001200290FFE70298C00770B3FFE7069933
:104BE00008694969401A05900598069989688842BC
:104BF00004D9FFE7069880680590FFE70598033021
:104C00008008049008980699C9689DF82420BDF88A
:104C10001430DDF828C09CF806C0EE46CEF800C07F
:104C200004F0DEF8059A0699C8681044C860059A31
:104C30000699486910444861B1E7069908694969CD
:104C400088420ED8FFE7099800F00F010120884044
:104C50000390039A0799D1F834089043C1F83408B7
:104C6000FFE700208DF82F00FFE79DF82F000CB024
:104C700080BD000000000000704700000000000040
:104C800080B586B00490039100208DF8070044F2AF
:104C90002840C5F60200006800F00300032804D194
:104CA000FFE701208DF81700CBE044F20041C5F684
:104CB0000201086820F080600860FBF7E9FE0290BE
:104CC000FFE744F20040C5F60200006800F0006112
:104CD0000020B0EBD16F0CD0FFE7FBF7D9FE0299B3
:104CE000401A032804D3FFE703208DF81700A8E03B
:104CF000E7E7FFE744F22841C5F60201086820F41F
:104D00007C30049A126840EA0230086004994868CE
:104D1000D1F808C0CB680A6901386FF35F204FF6FD
:104D20000061CFF6FF7101EB4C2189B208440021EC
:104D3000CFF6FF7101EB034101F4FE0108444FF08F
:104D40007F4101EB026101F0FE41084444F2384129
:104D5000C5F602010860FFE744F22C41C5F60201E6
:104D60000091086820F0C000049A5269104308605E
:104D7000086820F02000049A9269104308600868CF
:104D800020F01000086044F23C42C5F602021068B0
:104D90004FF6F8739843049BDB6940EAC300106048
:104DA000086840F010000860039848B9FFE744F233
:104DB0002C41C5F60201086840F40020086016E0A6
:104DC0000398012809D1FFE744F22C41C5F60201FE
:104DD000086840F48010086008E044F22C41C5F6F1
:104DE0000201086840F400100860FFE7FFE744F2A2
:104DF0000041C5F60201086840F080600860FBF7DA
:104E000047FE0290FFE744F20040C5F6020000684A
:104E100000F000610020B0EBD16F0CD1FFE7FBF791
:104E200037FE0299401A032804D3FFE703208DF8C8
:104E3000170006E0E7E7FFE79DF807008DF8170089
:104E4000FFE79DF8170006B080BD000000000000DD
:104E500080B586B00490039100208DF8070044F2DD
:104E60002840C5F60200006800F00300032804D1C2
:104E7000FFE701208DF81700CBE044F20041C5F6B2
:104E80000201086820F080500860FBF701FE0290E4
:104E9000FFE744F20040C5F60200006800F0005150
:104EA0000020B0EB517F0CD0FFE7FBF7F1FD02993A
:104EB000401A032804D3FFE703208DF81700A8E069
:104EC000E7E7FFE744F22841C5F60201086820F051
:104ED0007C70049A126840EA02500860049948689D
:104EE000D1F808C0CB680A6901386FF35F204FF62C
:104EF0000061CFF6FF7101EB4C2189B2084400211B
:104F0000CFF6FF7101EB034101F4FE0108444FF0BD
:104F10007F4101EB026101F0FE41084444F240414F
:104F2000C5F602010860FFE744F22C41C5F6020114
:104F30000091086820F44060049A526910430860A8
:104F4000086820F40070049A9269104308600868A9
:104F500020F48070086044F24442C5F602021068F2
:104F60004FF6F8739843049BDB6940EAC300106076
:104F7000086840F480700860039848B9FFE744F27D
:104F80002C41C5F60201086840F48000086016E074
:104F90000398012809D1FFE744F22C41C5F602012C
:104FA000086840F40000086008E044F22C41C5F6AF
:104FB0000201086840F080700860FFE7FFE744F2F4
:104FC0000041C5F60201086840F080500860FBF718
:104FD0005FFD0290FFE744F20040C5F60200006862
:104FE00000F000510020B0EB517F0CD1FFE7FBF740
:104FF0004FFD0299401A032804D3FFE703208DF8E0
:10500000170006E0E7E7FFE79DF807008DF81700B7
:10501000FFE79DF8170006B080BD0000000000000B
:10502000704700000000000084B0039003980090D7
:1050300000980078ADF808000098013000900098C2
:105040000078ADF80600BDF80610BDF8080040EA8B
:105050000120ADF80A00BDF80A0004B07047000056
:1050600080B582B0009000980138B0F1807F03D302
:10507000FFE70120019019E0009801384EF2140179
:10508000CEF2000108604FF0FF300F2103F03CFF2B
:105090004EF21801CEF20001002008604EF210021C
:1050A000CEF20002072111600190FFE7019802B0E3
:1050B00080BD00000000000080B5FBF7F1FC80BD62
:1050C00080B59EB00BA84C21FBF77AF90020019027
:1050D0000A9009900890079006900590049003901C
:1050E0000220FDF765F8FFE70020029044F6180063
:1050F000C5F60200016841F440410160006800F417
:105100004040029040F22C40C5F60000016841F09A
:1051100001010160006800F0010002900298FFE7C1
:10512000FFE744F61800C5F60200006800F40050DE
:10513000B0F5005F01D0FFE7F3E722200B900120DC
:105140000E9040210F911190022114910020159092
:10515000042216923C221792189119911A910C214F
:105160001B911C901D900BA8FEF7D2FC18B1FFE715
:10517000FBF732FAFFE73F20039003200490002062
:105180000590082006904020079008904FF4806119
:1051900009910A9003A80421FEF7BAF818B1FFE7B5
:1051A000FBF71AFAFFE71EB080BD00000000000008
:1051B00081B04EF68851CEF20001086840F47000CC
:1051C000086042F20000C5F20020006800F00F0005
:1051D00006280AD8FFE742F20001C5F2002108685C
:1051E000072262F303000860FFE744F20041C5F6BE
:1051F0000201086840F00100086044F21042C5F660
:1052000002020020106008684EF67F52CEF6F622A9
:105210001040086042F20000C5F20020006800F073
:105220000F0008280AD3FFE742F20001C5F200216F
:105230000868072262F303000860FFE744F21841A0
:10524000C5F6020100200090086044F21C41C5F63A
:105250000201086044F22041C5F60201086044F2F0
:105260002842C5F6020240F20021C0F2022111607C
:1052700044F22C42C5F602020021C0F2FF11116077
:1052800044F23042C5F6020240F28021C0F2011120
:10529000116044F23442C5F60202106044F2384212
:1052A000C5F60202116044F23C42C5F602021060EB
:1052B00044F24042C5F60202116044F24441C5F690
:1052C0000201086044F20042C5F60202116821F4AE
:1052D0008021116044F26041C5F60201086041F28C
:1052E0000001C5F600410968B0EB517F07D1FFE727
:1052F00048F20811C5F2001101200860FFE744F2EE
:105300000001C5F2002143F2D200086001B07047ED
:1053100080B586B004908DF80F100498D0F8C802BC
:1053200001900498D0F8D41200EB8100D0F8C002AC
:1053300020B9FFE703208DF817005FE00498D0F84C
:10534000D41200EB8100D0F8C002029004989DF8BE
:105350000F1001F00F0101EB810100EB810080696A
:1053600040B3FFE704989DF80F1001F00F0101EB27
:10537000810200EB82008269019801EBC10100EB20
:105380008100C169B2FBF1F000FB112090B9FFE789
:1053900004989DF80F1001F00F0101EB810100EB63
:1053A00081000023836104989DF80F101A4601F0D4
:1053B000FBFD1FE002990020C1F814020498D0F808
:1053C000D41200EB8100D0F8C402006988B1FFE775
:1053D0000498D0F8D41200EB8100D0F8C40203691D
:1053E0000299D1F8080201F504719DF80F20984741
:1053F000FFE7FFE700208DF81700FFE79DF8170093
:1054000006B080BD0000000080B584B002908DF829
:1054100007100298D0F8D41200EB8100D0F8C00237
:1054200000900298D0F8D41200EB8100D0F8C002AE
:1054300020B9FFE703208DF80F0019E002989DF8CE
:10544000071001F021FB0099C1F80C020298D0F876
:10545000D41200EB8100D0F8C402C2680099D1F8E0
:10546000040201F50371904700208DF80F00FFE75B
:105470009DF80F0004B080BD80B586B005908DF812
:105480001310059840F20101C2F200410091097821
:1054900001F00EF900990598097801F00F0101EB70
:1054A000810100EB8101002003908884059840F27F
:1054B0000201C2F200410191097801F0F9F8019A64
:1054C00003980599127802F00F0202EB820201EBB9
:1054D0008201A1F86401059840F20001C2F2004186
:1054E0000291097801F0E4F8029A0398059913787B
:1054F00003F00F0303EB830301EB83018884059919
:10550000127802F00F0202EB820201EB8201C884E2
:105510000598D0F8D41200EB8100D0F8C002F0B1A9
:10552000FFE70598D0F8D41200EB8100D0F8C40250
:10553000406880470598D0F8D41200EB8100D0F87D
:10554000C00202F059FA0598D0F8D41200EB81019C
:105550000020C1F8C0020599C1F8BC02FFE7002095
:1055600006B080BD0000000080B584B002900298B3
:10557000D0F8D41200EB8100D0F8C002019001985D
:1055800020B9FFE703208DF80F0025E00298D0F83E
:10559000D41200EB8100D0F8C402C8B1FFE7019833
:1055A00090F80002FF2813D0FFE70298D0F8D41239
:1055B00000EB8100D0F8C4028368019991F80002E1
:1055C00091F8012298470199FF2081F80002FFE736
:1055D00000208DF80F00FFE79DF80F0004B080BD9C
:1055E00081B0009000990A20088040F28C00C2F23D
:1055F000004001B07047000080B586B0059040F2D1
:105600006C00C2F200400190822100F011FE0146C0
:1056100001980491012100F00BFE014601980391CD
:10562000812100F005FE0290049820B1FFE7049963
:1056300010208871FFE7039820B1FFE7039940200D
:105640008880FFE7029820B1FFE702994020888018
:10565000FFE705992020088040F26C00C2F200406C
:1056600006B080BD0000000080B586B0059040F215
:105670006C00C2F200400190822100F0D9FD014689
:1056800001980491012100F0D3FD01460198039196
:10569000812100F0CDFD0290049820B1FFE704992C
:1056A00010208871FFE7039828B1FFE703994FF4B2
:1056B00000708880FFE7029828B1FFE702994FF455
:1056C00000708880FFE705992020088040F26C0078
:1056D000C2F2004006B080BD80B586B0059040F2B1
:1056E0006C00C2F200400190822100F0A1FD014651
:1056F00001980491012100F09BFD0146019803915E
:10570000812100F095FD0290049820B1FFE70499F3
:1057100010208871FFE7039820B1FFE7039940202C
:105720008880FFE7029820B1FFE702994020888037
:10573000FFE705992020088040F26C00C2F200408B
:1057400006B080BD0000000080B590B00E908DF8CE
:1057500037104FF4077002F053F90C900C9860B9B1
:10576000FFE70E98D0F8D41200EB81010020C1F8B9
:10577000C00202208DF83F00F0E00C984FF4077152
:10578000FAF71EFE0C980E99D1F8D42201EB820193
:10579000C1F8C0020E99D1F8D40201EB8000D0F814
:1057A000C002C1F8BC020E98007C002840D1FFE77F
:1057B0000E9840F20101C2F20041079109780222DD
:1057C00008924FF40073099301F052FA0799089A6E
:1057D000099B0E98097801F00F0101EB810100EBA4
:1057E000810101200B9088840E9840F20201C2F2E0
:1057F00000410A91097801F03BFA0A9A0B980E9938
:10580000127802F00F0202EB820201EB8201A1F892
:1058100064010E9840F20001C2F20041097801F0E3
:105820000F0101EB810100EB81011020C8843EE0F3
:105830000E9840F20101C2F2004102910978022261
:1058400003924023049301F013FA0299039A049BF4
:105850000E98097801F00F0101EB810100EB810145
:105860000120069088840E9840F20201C2F20041A5
:105870000591097801F0FCF9059A06980E991278BD
:1058800002F00F0202EB820201EB8201A1F8640137
:105890000E9840F20001C2F20041097801F00F01B8
:1058A00001EB810100EB81011020C884FFE70E9815
:1058B00040F20001C2F2004100910978032208235E
:1058C00001F0D6F900990E98097801F00F0101EB6B
:1058D000810100EB8101012088840C990020019056
:1058E000C1F804020E98D0F8D41200EB8100D0F871
:1058F000C4020068804701980C99C1F814020C9901
:10590000C1F818020C98D0F8040220B9FFE7022071
:105910008DF83F0022E00E98007C70B9FFE70E98EA
:1059200040F20201C2F2004109780C9AD2F8042236
:105930004FF4007301F0C4F90CE00E9840F202013C
:10594000C2F2004109780C9AD2F80422402301F0F7
:10595000B7F9FFE700208DF83F00FFE79DF83F0013
:1059600010B080BD0000000080B584B002900298A5
:10597000D0F8D41200EB8100D0F8C0020190029858
:10598000D0F8D41200EB8100D0F8C00220B9FFE7B4
:1059900003208DF80F0022E00298007C70B9FFE729
:1059A000029840F20201C2F200410978019AD2F84D
:1059B00004224FF4007301F083F90CE0029840F2E6
:1059C0000201C2F200410978019AD2F80422402370
:1059D00001F076F9FFE700208DF80F00FFE79DF852
:1059E0000F0004B080BD000083B0019000910098CA
:1059F00020B9FFE703208DF80B000BE00098019918
:105A0000D1F8D42201EB8201C1F8C40200208DF844
:105A10000B00FFE79DF80B0003B07047000000008B
:105A200084B0029001910298D0F8D41200EB81006A
:105A3000D0F8C0020090009820B9FFE703208DF84D
:105A40000F0007E001980099C1F8040200208DF8CA
:105A50000F00FFE79DF80F0004B070470000000042
:105A600085B00390029101920398D0F8D41200EB14
:105A70008100D0F8C0020090009820B9FFE7032011
:105A80008DF813000BE002980099C1F80802019804
:105A90000099C1F8100200208DF81300FFE79DF86F
:105AA000130005B07047000080B58AB008900791D8
:105AB0000898D0F8D41200EB8100D0F8C00206900C
:105AC00000208DF81500ADF812008DF81100069831
:105AD00020B9FFE703208DF82700C7E0079800787A
